:020000040800F2
:100000000050002041170008191600081F160008AC
:10001000251600082B160008311600080000000005
:10002000000000000000000000000000371600087B
:1000300043160008000000004F1600085B16000879
:100040008917000889170008891700088917000810
:100050008917000889170008891700088917000800
:1000600089170008891700088917000889170008F0
:1000700089170008891700088917000889170008E0
:1000800089170008891700086916000889170008F1
:1000900089170008891700088917000889170008C0
:1000A00089170008891700088917000889170008B0
:1000B0007D160008911600088917000889170008A6
:1000C0008917000889170008891700088917000890
:1000D0008917000889170008A51600088917000865
:1000E000B9160008891700088917000800000000E9
:1000F0000000000000000000000000000000000000
:0C01000000000000000000005FF808F1A3
:10010C0010B5054C237833B9044B13B10448AFF345
:10011C0000800123237010BDD800002000000000D7
:10012C004453000808B5034B1BB103490348AFF314
:10013C00008008BD00000000DC00002044530008D3
:10014C0084B080B582B000AF07F1100C8CE80F00C2
:10015C00234B1B6897F8A8205A63012200212148E1
:10016C0003F0D2FE0023FB7129E0012200211D487F
:10017C0003F0CAFE1C4B1B68FA7907F1100131F829
:10018C00122012021146174AB3FBF1F39362FB796A
:10019C0010333B4493F864301A464FF47A7393FB54
:1001AC00F2F3184601F04EFB002200210D4803F03B
:1001BC00ABFE0A2001F046FBFB790133FB7197F88B
:1001CC00A630FA799A42D0D300220021054803F0D8
:1001DC009BFE00BF0837BD46BDE8804004B07047A9
:1001EC00C4010020000400406800002080B59AB0D3
:1001FC0000AF0F4B1B68012B15D10E4B1B680E4A21
:10020C0013600D4B1A683B1D0C49184604F028FC72
:10021C0003469AB2391D4FF4FA73094803F055FF9F
:10022C00642000F0CFFF00BF6837BD4680BD00BF23
:10023C009402002064000020F40000205C530008AD
:10024C000C0200202DE9F041A6B024AF7860154ACD
:10025C007B6852F82330012B1DD1124A7B68002198
:10026C0042F82310104B052222921A6890465A68C5
:10027C0016469A681546DA68144668461033882282
:10028C00194604F0D7FB404631462A462346FFF771
:10029C0057FF012300E0002318460837BD46BDE890
:1002AC00F08100BFF8000020AC54000880B483B08B
:1002BC0000AF7860044A7B68012142F8231000BF2C
:1002CC000C37BD4680BC7047F800002080B582B06A
:1002DC0000AF00237B6067E0374A7B6852F823202D
:1002EC0036497B6841F82320354A7B6852F8232035
:1002FC0031497B6841F82320324A7B6852F823301D
:10030C001846314A7B6852F823309BB2194602F0EA
:10031C00F7F9034619462A4A7B6842F82310264A05
:10032C007B6852F8232026497B6851F823309A4287
:10033C0037D1214A7B6852F8232020497B6851F839
:10034C0023309A422DD11D4A7B6852F823201F4935
:10035C007B6851F823309A4215D0184A7B6852F8C2
:10036C0023201A497B6841F82320184A7B6852F8ED
:10037C002330002B15D1164B4FF496721A60786807
:10038C00FFF794FF0DE0124B1B68013B104A136002
:10039C000F4B1B68002B04D10C4A7B68012142F8DF
:1003AC0023107B6801337B607B68032B94DD00BFDB
:1003BC0000BF0837BD4680BD100000202000002083
:1003CC0000000020500000204000002030000020E1
:1003DC00600000202DE9F041A6B024AF8B4B1B68C8
:1003EC00012B40F002818A4B1B68032B5FD801A2C2
:1003FC0052F823F0110400081F04000853040008ED
:10040C0087040008824B01221A60642000F08AFEE7
:10041C0054E0804B1B68012B4BD100F079FB7E4BD9
:10042C001B68013B7C4A13607B4B1B68002B06D17D
:10043C007A4B1B68784A1360754B02221A60642051
:10044C0000F070FE35E0734B1B68012B33D100F0CC
:10045C0087FB734B1B68013B714A1360704B1B6825
:10046C00002B06D16F4B1B686D4A1360684B03223F
:10047C001A60642000F056FE1DE0664B1B68012BD1
:10048C001BD100F059FB684B1B68013B664A13609B
:10049C00654B1B68002B06D1644B1B68624A1360CA
:1004AC005B4B01221A60642000F03CFE05E000BFAB
:1004BC0004E000BF02E000BF00E000BF5C4B1B6823
:1004CC00032B60D801A252F823F000BFE904000806
:1004DC005F050008F70400082B050008544B0222A6
:1004EC001A60642000F032FE54E0524B1B68012B62
:1004FC004BD100F059FB504B1B68013B4E4A13602B
:10050C004D4B1B68002B06D1464B1B684A4A1360A7
:10051C00474B03221A60642000F018FE35E0454B6F
:10052C001B68012B33D100F04FFB444B1B68013B84
:10053C00424A1360414B1B68002B06D13B4B1B6896
:10054C003E4A13603A4B01221A60642000F0FEFD13
:10055C001DE0384B1B68012B1BD100F015FB384BF1
:10056C001B68013B364A1360354B1B68002B06D1C8
:10057C002A4B1B68324A13602D4B02221A606420EE
:10058C0000F0E4FD05E000BF04E000BF02E000BFA6
:10059C0000E000BF1D4B1B68032B1AD0032B26DC7D
:1005AC00012B02D0022B0AD021E00020FFF74AFEDB
:1005BC000346012B1DD1154B02221A6019E00020B5
:1005CC00FFF740FE0346012B15D1104B03221A6096
:1005DC0011E00020FFF736FE0346012B02D10B4B36
:1005EC0001221A6000F0FEF906E000BF04E000BF33
:1005FC0002E000BF00E000BF054B1B687B607B681E
:10060C00012B1FD07B68022B76D0D1E00801002093
:10061C000C0100205402002034010020280100208D
:10062C0038010020300100203C0100202C0100206A
:10063C00100100205C020020440100204801002031
:10064C00400100200320FFF7FDFD0346002B07D0DF
:10065C0000F0DEFA594B0A221A60642000F0C6FD45
:10066C00574B1B68012B40F0A080544B1B68002B90
:10067C001DDD00F0CDFA514B1B68013B4F4A136056
:10068C00504B052222921A6890465A6816469A6870
:10069C001546DA681446684610338822194604F069
:1006AC00C9F9404631462A462346FFF749FD434BDC
:1006BC001B68002B1CD100F0BFFA434B0522229281
:1006CC001A6890465A6816469A681546DA681446AF
:1006DC00684610338822194604F0ACF9404631467E
:1006EC002A462346FFF72CFD344B4FF0FF321A609D
:1006FC00642000F07BFD58E00320FFF7A3FD0346C8
:10070C00002B07D000F070FA2C4B0A221A606420E0
:10071C0000F06CFD2A4B1B68012B48D1274B1B6842
:10072C00002B1DDD00F060FA244B1B68013B234AB3
:10073C001360244B052222921A6890465A6816467A
:10074C009A681546DA6814466846103388221946AA
:10075C0004F070F9404631462A462346FFF7F0FC78
:10076C00164B1B68002B1CD100F066FA164B0522A9
:10077C0022921A6890465A6816469A681546DA68A4
:10078C001446684610338822194604F053F9404643
:10079C0031462A462346FFF7D3FC084B4FF0FF3275
:1007AC001A60642000F022FD01E000BF00E000BFF1
:1007BC0000BF0837BD46BDE8F08100BF64000020D3
:1007CC009C020020145400087C53000880B500AF34
:1007DC006F4B1B68022B63D16E4B1B68002B02D036
:1007EC00012B09D012E06B4B01221A6000F072F958
:1007FC000A2000F0BFFC09E0674B1B68012B04D1F9
:10080C0000F048F9322000F0B5FC00BF634B1B68C8
:10081C00022B31D0022B35DC002B02D0012B0FD058
:10082C0030E00120FFF70EFD0346012B2CD15B4B72
:10083C0001221A605A4B1B680133594A136023E09A
:10084C000120FFF7FFFC0346012B0BD1544B1B6817
:10085C000133534A1360524B1B68632B02DD504B20
:10086C0063221A600220FFF7EDFC0346012B0DD129
:10087C004A4B02221A6009E0454B01221A6000F033
:10088C00B1F804E000BF02E000BF00E000BF0020B0
:10089C00FFF7D8FC0346012B02D13D4B03221A6013
:1008AC003B4B1B68032B69D13E4B1B68002B02D0C2
:1008BC00012B09D012E000F00DF93A4B01221A601D
:1008CC000A2000F06BFC09E0374B1B68012B04D1AC
:1008DC0000F0F2F8322000F061FC00BF334B1B68D3
:1008EC00022B35D0022B39DC002B02D0012B0FD080
:1008FC0034E00120FFF7A6FC0346012B30D12B4B33
:10090C0001221A602A4B1B680133294A136027E025
:10091C000120FFF797FC0346012B0FD1244B1B68DA
:10092C000133234A1360224B1A681D4B1B689A42F1
:10093C0004DB1B4B1B68013B1D4A13600220FFF7B5
:10094C0081FC0346012B0DD1184B02221A6009E0E1
:10095C000F4B01221A6000F045F804E000BF02E0E2
:10096C0000BF00E000BF0020FFF76CFC0346012B2A
:10097C0004D1074B01221A6000F034F8084B1A68B6
:10098C000B4B1B68D31A0B4A136000BF80BD00BF12
:10099C0008010020180100206C0200201C0100201E
:1009AC0028010020200100208C02002024010020BE
:1009BC00300100202C01002080B400AF064B052232
:1009CC001A60064B02221A60054B03221A6000BF04
:1009DC00BD4680BC704700BF280100202C010020C0
:1009EC003001002080B400AF194B01221A60194B62
:1009FC0000221A60184B00221A60184B00221A6051
:100A0C00174B00221A60174B00221A60164B00225B
:100A1C001A60164B00221A60154B1B68154A13609E
:100A2C00154B1B68154A1360154B1B68154A136050
:100A3C000F4B1B68144A13600F4B1B68134A13604F
:100A4C000F4B1B68124A136000BFBD4680BC704739
:100A5C00080100200C0100201001002014010020CE
:100A6C00180100201C01002020010020240100207E
:100A7C002801002034010020300100203801002022
:100A8C002C0100203C0100204001002044010020EA
:100A9C004801002080B500AF4FF48061044801F09C
:100AAC005EFE2021034801F05AFE00BF80BD00BF4E
:100ABC0000080140000C014080B500AF082104483B
:100ACC0001F04DFE1021024801F049FE00BF80BD2F
:100ADC00000C014080B500AF00224FF480610A4841
:100AEC0001F025FE00220821084801F020FE00221A
:100AFC002021064801F01BFE00221021034801F0C2
:100B0C0016FE00BF80BD00BF00080140000C014074
:100B1C0080B500AF01224FF48061054801F007FE5B
:100B2C0000220821034801F002FE00BF80BD00BF77
:100B3C0000080140000C014080B500AF01224FF4C9
:100B4C008061054801F0F3FD01220821034801F002
:100B5C00EEFD00BF80BD00BF00080140000C01404D
:100B6C0080B500AF00224FF48061054801F0DFFD35
:100B7C0001220821034801F0DAFD00BF80BD00BF4F
:100B8C0000080140000C014080B500AF012220217B
:100B9C00044801F0CCFD00221021024801F0C7FDF1
:100BAC0000BF80BD000C014080B500AF00222021A9
:100BBC00044801F0BCFD01221021024801F0B7FDF0
:100BCC0000BF80BD000C014080B500AF0122202188
:100BDC00044801F0ACFD01221021024801F0A7FDF0
:100BEC0000BF80BD000C014080B500AF01224FF466
:100BFC008061054801F09BFD00224FF48071034891
:100C0C0001F095FD00BF80BD000C014000080140C3
:100C1C0080B500AF00224FF48061054801F087FDDC
:100C2C0001224FF48071034801F081FD00BF80BDAB
:100C3C00000C01400008014080B500AF00224FF4C9
:100C4C008061054801F073FD00224FF48071034868
:100C5C0001F06DFD00BF80BD000C0140000801409B
:100C6C0080B500AF00F08CFD00F028F800F0A8F97A
:100C7C0000F07CF900F0B8F800F002F900F076F81A
:100C8C0000210B4802F070FB0A4802F0C3FA0A4834
:100C9C0000F0D4FEFFF790FEFFF7A4FE642000F0F6
:100CAC0091FAFFF797FBFFF791FDFFF79FFAF8E733
:100CBC00C40100207C0100204C01002080B594B0C0
:100CCC0000AF07F1280328220021184603F0C0FECC
:100CDC0007F1140300221A605A609A60DA601A61F4
:100CEC003B1D00221A605A609A60DA600223BB62D4
:100CFC000123BB631023FB6302237B640023BB64CF
:100D0C004FF46013FB6407F12803184601F062FDF1
:100D1C000346002B01D000F0FFF90F237B61022367
:100D2C00BB610023FB614FF480633B6200237B6259
:100D3C0007F114030221184601F0CEFF0346002BE5
:100D4C0001D000F0E9F902237B604FF44043FB60D3
:100D5C003B1D184602F058F90346002B01D000F059
:100D6C00DBF900BF5037BD4680BD000080B584B0B4
:100D7C0000AF3B1D00221A605A609A60184B194A4A
:100D8C001A60174B00229A60154B01221A73144BF0
:100D9C0000221A75124B4FF46022DA61104B0022BC
:100DAC005A600F4B01221A610D4800F06FFD03468B
:100DBC00002B01D000F0B0F90A237B600123BB604B
:100DCC000023FB603B1D1946054800F0BBFF0346A2
:100DDC00002B01D000F0A0F900BF1037BD4680BD3C
:100DEC004C0100200024014080B586B000AF07F113
:100DFC00080300221A605A609A60DA603B460022AF
:100E0C001A605A601D4B4FF080421A601B4B47F61C
:100E1C00FF425A60194B00229A60184B1322DA6079
:100E2C00164B00221A61154B00229A61134802F0EE
:100E3C00A1F90346002B01D000F06EF94FF480535A
:100E4C00BB6007F1080319460C4802F0F5FC034699
:100E5C00002B01D000F060F900233B6000237B6085
:100E6C003B461946054803F073F80346002B01D0A6
:100E7C0000F052F900BF1837BD4680BD7C01002040
:100E8C0080B58EB000AF07F1280300221A605A60BB
:100E9C009A60DA6007F1200300221A605A603B1D49
:100EAC0000221A605A609A60DA601A615A619A617B
:100EBC002C4B2D4A1A602B4B1F225A60294B0022B7
:100ECC009A60284BFF22DA60264B00221A61254BD0
:100EDC0000229A61234802F04DF90346002B01D001
:100EEC0000F01AF94FF48053BB6207F1280319463E
:100EFC001C4802F0A1FC0346002B01D000F00CF9B9
:100F0C00184802F0D9F90346002B01D000F004F97F
:100F1C0000233B6200237B6207F120031946114832
:100F2C0003F016F80346002B01D000F0F5F860230F
:100F3C007B600023BB600023FB6000237B613B1DB7
:100F4C0000221946074802F0B9FB0346002B01D0DA
:100F5C0000F0E2F8034800F0E1FA00BF3837BD4674
:100F6C0080BD00BFC40100200004004080B500AF6C
:100F7C00114B124A1A60104B4FF416525A600E4B1A
:100F8C0000229A600C4B0022DA600B4B00221A6193
:100F9C00094B0C225A61084B00229A61064B002225
:100FAC00DA61054803F044F80346002B01D000F049
:100FBC00B3F800BF80BD00BF0C020020004400400D
:100FCC0080B588B000AF07F1100300221A605A6098
:100FDC009A60DA60454B9B69444A43F01003936175
:100FEC00424B9B6903F01003FB60FB683F4B9B6912
:100FFC003E4A43F0200393613C4B9B6903F0200372
:10100C00BB60BB68394B9B69384A43F0040393615E
:10101C00364B9B6903F004037B607B68334B9B6905
:10102C00324A43F008039361304B9B6903F0080389
:10103C003B603B6800224FF4A4612D4801F077FB24
:10104C0000224FF487612B4801F071FB4FF40053E1
:10105C003B61294B7B610023BB6107F110031946EF
:10106C00264801F0C9F913233B6100237B6101235E
:10107C00BB6107F1100319461D4801F0BDF94FF48F
:10108C00A4633B6101237B610023BB610223FB61F1
:10109C0007F110031946164801F0AEF901233B6124
:1010AC0000237B610123BB6107F110031946114832
:1010BC0001F0A2F94FF487633B6101237B610023AC
:1010CC00BB610223FB6107F110031946094801F0CB
:1010DC0093F900220021282001F0A7F8282001F024
:1010EC00C0F800BF2037BD4680BD00BF00100240D5
:1010FC0000080140000C01400000111000100140DC
:10110C0080B582B000AF786000F084F8FFF7DEF8AD
:10111C0000BF0837BD4680BD80B400AF72B600BFBB
:10112C00FEE7000080B483B000AF7860054A7B68AE
:10113C001360054B00221A6000BF0C37BD4680BC03
:10114C00704700BF500200205402002080B483B0CE
:10115C0000AF7860054A7B681360054B00221A606B
:10116C0000BF0C37BD4680BC704700BF5802002042
:10117C005C02002080B483B000AF7860054A7B68C5
:10118C001360054B00221A6000BF0C37BD4680BCB3
:10119C00704700BF680200206C02002080B483B04E
:1011AC0000AF7860054A7B681360054B00221A601B
:1011BC0000BF0C37BD4680BC704700BF88020020C2
:1011CC008C02002080B483B000AF7860054A7B6845
:1011DC001360054B00221A6000BF0C37BD4680BC63
:1011EC00704700BF900200209402002080B483B0AE
:1011FC0000AF7860054A7B681360054B00221A60CB
:10120C0000BF0C37BD4680BC704700BF9802002061
:10121C009C02002080B400AF514B1B68002B0BDDEF
:10122C004F4B1B68013B4E4A13604D4B1B68002B08
:10123C0002DC4C4B01221A604B4B1B68002B0BDD64
:10124C00494B1B68013B484A1360474B1B68002BFA
:10125C0002DC464B01221A60454B1B68002B0BDD50
:10126C00434B1B68013B424A1360414B1B68002BEC
:10127C0002DC404B01221A603F4B1B68002B0BDD3C
:10128C003D4B1B68013B3C4A13603B4B1B68002BDE
:10129C0002DC3A4B01221A60394B1B68002B0BDD28
:1012AC00374B1B68013B364A1360354B1B68002BD0
:1012BC0002DC344B01221A60334B1B68002B0BDD14
:1012CC00314B1B68013B304A13602F4B1B68002BC2
:1012DC0002DC2E4B01221A602D4B1B68002B0BDD00
:1012EC002B4B1B68013B2A4A1360294B1B68002BB4
:1012FC0002DC284B01221A60274B1B68002B0BDDEC
:10130C00254B1B68013B244A1360234B1B68002BA5
:10131C0002DC224B01221A60214B1B68002B0BDDD7
:10132C001F4B1B68013B1E4A13601D4B1B68002B97
:10133C0002DC1C4B01221A601B4B1B68002B0BDDC3
:10134C00194B1B68013B184A1360174B1B68002B89
:10135C0002DC164B01221A6000BFBD4680BC7047F0
:10136C005002002054020020580200205C02002091
:10137C006002002064020020680200206C02002041
:10138C007002002074020020780200207C020020F1
:10139C008002002084020020880200208C020020A1
:1013AC009002002094020020980200209C02002051
:1013BC0080B485B000AF154B9B69144A43F0010310
:1013CC009361124B9B6903F00103BB60BB680F4B2D
:1013DC00DB690E4A43F08053D3610C4BDB6903F09D
:1013EC0080537B607B680A4B5B68FB60FB6823F077
:1013FC00E063FB60FB6843F00073FB60044AFB682E
:10140C00536000BF1437BD4680BC704700100240CB
:10141C000000014080B588B000AF786007F1100380
:10142C0000221A605A609A60DA607B681B68184A5E
:10143C00934229D1174B9B69164A43F4007393616D
:10144C00144B9B6903F40073FB60FB68114B9B69A5
:10145C00104A43F0100393610E4B9B6903F0100389
:10146C00BB60BB6801233B6103237B6107F1100365
:10147C001946094800F0C0FF00220021122000F09C
:10148C00D4FE122000F0EDFE00BF2037BD4680BD1B
:10149C0000240140001002400010014080B584B0CF
:1014AC0000AF78607B681B68B3F1804F14D1194B87
:1014BC00DB69184A43F00103D361164BDB6903F077
:1014CC000103FB60FB68002200211C2000F0ADFE34
:1014DC001C2000F0C6FE18E07B681B680E4A934285
:1014EC0013D10C4BDB690B4A43F00203D361094B5C
:1014FC00DB6903F00203BB60BB68002200211D20E6
:10150C0000F093FE1D2000F0ACFE00BF1037BD466E
:10151C0080BD00BF001002400004004080B588B0C0
:10152C0000AF786007F1100300221A605A609A60CD
:10153C00DA607B681B680F4A934217D10E4B9B698C
:10154C000D4A43F0040393610B4B9B6903F00403B6
:10155C00FB60FB6840233B6102237B610223FB6140
:10156C0007F110031946054800F046FF00BF20376D
:10157C00BD4680BD00040040001002400008014040
:10158C0080B588B000AF786007F1100300221A60B4
:10159C005A609A60DA607B681B68194A93422BD1B7
:1015AC00184BDB69174A43F40033D361154BDB69E5
:1015BC0003F40033FB60FB68124B9B69114A43F048
:1015CC00040393610F4B9B6903F00403BB60BB687E
:1015DC000C233B6102237B610223FB6107F11003A7
:1015EC001946094800F008FF00220021262000F0CF
:1015FC001CFE262000F035FE00BF2037BD4680BD06
:10160C0000440040001002400008014080B400AFCC
:10161C00FEE780B400AFFEE780B400AFFEE780B415
:10162C0000AFFEE780B400AFFEE780B400AF00BFB0
:10163C00BD4680BC704780B400AF00BFBD4680BCC7
:10164C00704780B400AF00BFBD4680BC704780B50A
:10165C0000AF00F0DBF800BF80BD000080B500AF2C
:10166C00024800F099FA00BF80BD00BF4C01002079
:10167C0080B500AF024801F019FF00BF80BD00BF6C
:10168C007C01002080B500AF024801F00FFF00BFC5
:10169C0080BD00BFC401002080B500AF024802F03D
:1016AC00A7FD00BF80BD00BF0C02002080B500AFBD
:1016BC004FF4005001F06CF800BF80BD80B586B0CF
:1016CC0000AF7860144A154BD31A7B617B693B6180
:1016DC00134B1B68002B02D1114B124A1A60104B92
:1016EC001A687B6813443A699A4207D203F078F976
:1016FC0003460C221A604FF0FF3309E0084B1B68BD
:10170C00FB60074B1A687B681344054A1360FB683F
:10171C0018461837BD4680BD00500020000400005C
:10172C00A0020020B802002080B400AF00BFBD466C
:10173C0080BC70470C480D490D4A002302E0D45878
:10174C00C4500433C4188C42F9D30A4A0A4C0023FF
:10175C0001E013600432A242FBD3FFF7E5FF03F074
:10176C0045F9FFF77DFA704700000020D8000020F3
:10177C0098550008D8000020B8020020FEE70000B1
:10178C0080B500AF084B1B68074A43F01003136089
:10179C00032000F03FFD002000F008F8FFF708FEE2
:1017AC000023184680BD00BF0020024080B582B0E7
:1017BC0000AF7860124B1A68124B1B7819464FF425
:1017CC007A73B3FBF1F3B2FBF3F3184600F057FD59
:1017DC000346002B01D001230EE07B680F2B0AD8A7
:1017EC00002279684FF0FF3000F01FFD064A7B683D
:1017FC001360002300E0012318460837BD4680BD66
:10180C0068000020700000206C00002080B400AF45
:10181C00054B1B781A46054B1B681344034A13608F
:10182C0000BFBD4680BC704770000020A4020020A1
:10183C0080B400AF024B1B681846BD4680BC704795
:10184C00A402002080B584B000AF7860FFF7F0FFF1
:10185C00B8607B68FB60FB68B3F1FF3F05D00A4BB7
:10186C001B781A46FB681344FB6000BFFFF7E0FFD0
:10187C000246BB68D31AFA689A42F7D800BF00BF79
:10188C001037BD4680BD00BF7000002080B586B00B
:10189C0000AF78600023FB7500233B610023BB6025
:1018AC000023FB607B68002B01D10123BEE07B6829
:1018BC009B68002B7B689B6A002B09D17B680022FC
:1018CC00DA627B68002283F824207868FFF7A2FD97
:1018DC00786800F089FB0346FB757B689B6A03F014
:1018EC001003002B40F09980FB7D002B40F095807D
:1018FC007B689B6A23F4885323F0020343F00202B3
:10190C007B689A627B685A687B68DB691A437B68E0
:10191C001B7B5B001343BA681343BB607B689B68FB
:10192C00B3F5807F03D07B689B68012B02D14FF409
:10193C00807300E000233A6913433B617B681B7D95
:10194C00012B19D17B681B7B002B09D17B689B6910
:10195C00013B5A033B69134343F400633B610BE0C7
:10196C007B689B6A43F020027B689A627B68DB6A27
:10197C0043F001027B68DA627B681B685B6823F4C6
:10198C0069417B681B683A690A435A607B681B682B
:10199C009A68284B13407A681268B9680B439360B5
:1019AC007B689B68B3F5807F03D07B689B68012BB9
:1019BC0004D17B681B69013B1B05FB607B681B68C2
:1019CC00DB6A23F470017B681B68FA680A43DA62ED
:1019DC007B681B689A68184B1340BA689A420BD103
:1019EC007B680022DA627B689B6A23F0030343F076
:1019FC0001027B689A6218E07B689B6A23F01203F1
:101A0C0043F010027B689A627B68DB6A43F0010248
:101A1C007B68DA620123FB7507E07B689B6A43F005
:101A2C0010027B689A620123FB75FB7D1846183700
:101A3C00BD4680BDFDF7E1FFFE0E1FFF80B584B0F3
:101A4C0000AF78600023FB737B6893F82430012B84
:101A5C0001D1022398E07B68012283F82420786866
:101A6C0000F068FA0346FB73FB7B002B40F0878089
:101A7C007B689B6A23F4407323F0010343F4807268
:101A8C007B689A627B681B68414A934205D1414B43
:101A9C005B6803F47023002B15D17B689B6A23F4DD
:101AAC0080127B689A627B681B685B6803F48063B6
:101ABC00002B26D07B689B6A23F4405343F480525E
:101ACC007B689A621DE07B689B6A43F480127B689A
:101ADC009A627B681B682F4A934204D07B681B6810
:101AEC002B4A93420DD12B4B5B6803F48063002B84
:101AFC0007D07B689B6A23F4405343F480527B6885
:101B0C009A627B689B6A03F48053002B06D07B6837
:101B1C00DB6A23F006027B68DA6202E07B68002253
:101B2C00DA627B68002283F824207B681B686FF0E4
:101B3C0002021A607B681B689B6803F46023B3F590
:101B4C00602F13D17B681B68114A934205D1114B4E
:101B5C005B6803F47023002B08D17B681B689A68C0
:101B6C007B681B6842F4A0029A600CE07B681B68DF
:101B7C009A687B681B6842F480129A6003E07B6869
:101B8C00002283F82420FB7B18461037BD4680BD0D
:101B9C00002801400024014080B582B000AF78607D
:101BAC007B681B685B6803F02003202B40D17B68AB
:101BBC001B681B6803F00203022B39D17B689B6AFC
:101BCC0003F01003002B05D17B689B6A43F4007271
:101BDC007B689A627B681B689B6803F46023B3F58F
:101BEC00602F1DD17B681B7B002B19D17B681B6878
:101BFC005A687B681B6822F020025A607B689B6ADB
:101C0C0023F480727B689A627B689B6A03F480532E
:101C1C00002B05D17B689B6A43F001027B689A62BA
:101C2C00786800F07CF87B681B686FF012021A6011
:101C3C007B681B685B6803F08003802B4FD17B684B
:101C4C001B681B6803F00403042B48D17B689B6A58
:101C5C0003F01003002B05D17B689B6A43F4005200
:101C6C007B689A627B681B689B6803F4E043B3F55E
:101C7C00E04F12D07B681B685B6803F48063002B19
:101C8C0025D17B681B689B6803F46023B3F5602F38
:101C9C001DD17B681B7B002B19D17B681B685A6894
:101CAC007B681B6822F080025A607B689B6A23F475
:101CBC0080527B689A627B689B6A03F48073002B6A
:101CCC0005D17B689B6A43F001027B689A62786855
:101CDC0000F0CBF97B681B686FF00C021A607B6814
:101CEC001B685B6803F04003402B14D17B681B68B6
:101CFC001B6803F00103012B0DD17B689B6A43F435
:101D0C0080327B689A62786800F012F87B681B68F6
:101D1C006FF001021A6000BF0837BD4680BD80B469
:101D2C0083B000AF786000BF0C37BD4680BC7047F5
:101D3C0080B483B000AF786000BF0C37BD4680BC68
:101D4C007047000080B485B000AF78603960002324
:101D5C00FB730023BB607B6893F82430012B01D10B
:101D6C000223DCE07B68012283F824203B685B685B
:101D7C00062B1CD87B681B68596B3B685A6813464A
:101D8C009B001344053B1F2202FA03F3DB4319406B
:101D9C003B6818683B685A6813469B001344053B24
:101DAC0000FA03F27B681B680A435A633CE03B6809
:101DBC005B680C2B1CD87B681B68196B3B685A68DA
:101DCC0013469B001344233B1F2202FA03F3DB430D
:101DDC0019403B6818683B685A6813469B001344CB
:101DEC00233B00FA03F27B681B680A431A631BE06F
:101DFC007B681B68D96A3B685A6813469B0013447E
:101E0C00413B1F2202FA03F3DB4319403B6818687D
:101E1C003B685A6813469B001344413B00FA03F29B
:101E2C007B681B680A43DA623B681B68092B1CD968
:101E3C007B681B68D9683B681A6813465B001344BF
:101E4C001E3B072202FA03F3DB4319403B689868F8
:101E5C003B681A6813465B0013441E3B00FA03F2FE
:101E6C007B681B680A43DA6019E07B681B68196998
:101E7C003B681A6813465B001344072202FA03F30B
:101E8C00DB4319403B6898683B681A6813465B0053
:101E9C00134400FA03F27B681B680A431A613B681F
:101EAC001B68102B03D03B681B68112B32D17B684D
:101EBC001B681D4A934225D17B681B689B6803F401
:101ECC000003002B26D17B681B689A687B681B6813
:101EDC0042F400029A603B681B68102B1AD1134B1A
:101EEC001B68134AA2FB03239A0C13469B00134452
:101EFC005B00BB6002E0BB68013BBB60BB68002BB6
:101F0C00F9D107E07B689B6A43F020027B689A62F8
:101F1C000123FB737B68002283F82420FB7B18468B
:101F2C001437BD4680BC7047002401406800002077
:101F3C0083DE1B4380B584B000AF78600023FB6068
:101F4C000023BB607B681B689B6803F00103012BBB
:101F5C0040D07B681B689A687B681B6842F0010262
:101F6C009A601F4B1B681F4AA2FB03239B0CBB6090
:101F7C0002E0BB68013BBB60BB68002BF9D1FFF7EB
:101F8C0057FCF8601FE0FFF753FC0246FB68D31ABE
:101F9C00022B18D97B681B689B6803F00103012B8B
:101FAC0011D07B689B6A43F010027B689A627B6855
:101FBC00DB6A43F001027B68DA627B68002283F8FB
:101FCC002420012307E07B681B689B6803F0010356
:101FDC00012BD8D1002318461037BD4680BD00BF59
:101FEC006800002083DE1B4380B584B000AF7860AE
:101FFC000023FB607B681B689B6803F00103012BCB
:10200C002ED17B681B689A687B681B6822F00102E2
:10201C009A60FFF70DFCF8601BE0FFF709FC024625
:10202C00FB68D31A022B14D97B681B689B6803F0DE
:10203C000103012B0DD17B689B6A43F010027B6876
:10204C009A627B68DB6A43F001027B68DA620123E7
:10205C0007E07B681B689B6803F00103012BDCD055
:10206C00002318461037BD4680BD80B483B000AF46
:10207C00786000BF0C37BD4680BC704780B485B01B
:10208C0000AF78607B6803F00703FB600C4BDB68E8
:10209C00BB60BA684FF6FF031340BB60FB681A02C3
:1020AC00BB68134343F0BF6343F40033BB60044A83
:1020BC00BB68D36000BF1437BD4680BC704700BFFF
:1020CC0000ED00E080B400AF044BDB681B0A03F0AA
:1020DC0007031846BD4680BC704700BF00ED00E00A
:1020EC0080B483B000AF0346FB7197F90730002B27
:1020FC000BDBFB7903F01F02064997F907305B09EC
:10210C00012000FA02F241F8232000BF0C37BD4633
:10211C0080BC704700E100E080B483B000AF0346A0
:10212C003960FB7197F90730002B0ADB3B68DAB298
:10213C000C4997F907301201D2B20B4483F80023F3
:10214C000AE03B68DAB20849FB7903F00F03043B61
:10215C001201D2B20B441A7600BF0C37BD4680BCBC
:10216C00704700BF00E100E000ED00E080B489B0F2
:10217C0000AFF860B9607A60FB6803F00703FB619D
:10218C00FB69C3F10703042B28BF0423BB61FB6964
:10219C000433062B02D9FB69033B00E000237B616F
:1021AC004FF0FF32BB6902FA03F3DA43BB681A4003
:1021BC007B699A404FF0FF317B6901FA03F3D943F5
:1021CC007B680B40134318462437BD4680BC7047D0
:1021DC0080B582B000AF78607B68013BB3F1807F43
:1021EC0001D301230FE00A4A7B68013B53600F21A6
:1021FC004FF0FF30FFF790FF054B00229A60044B25
:10220C0007221A60002318460837BD4680BD00BF60
:10221C0010E000E080B582B000AF78607868FFF71E
:10222C002DFF00BF0837BD4680BD80B586B000AF1E
:10223C000346B9607A60FB7300237B61FFF742FFB2
:10224C0078617A68B9687869FFF790FF024697F968
:10225C000F3011461846FFF75FFF00BF1837BD4619
:10226C0080BD80B582B000AF0346FB7197F9073093
:10227C001846FFF735FF00BF0837BD4680BD80B557
:10228C0082B000AF78607868FFF7A2FF034618466B
:10229C000837BD4680BD80B485B000AF78600023A0
:1022AC00FB737B6893F82130022B08D07B680422E7
:1022BC009A637B68002283F82020012320E07B684E
:1022CC001B681A687B681B6822F00E021A607B6818
:1022DC001B681A687B681B6822F001021A607B6815
:1022EC001A6C7B68DB6B012101FA02F25A607B6885
:1022FC00012283F821207B68002283F82020FB7BBD
:10230C0018461437BD4680BC7047000080B584B0B9
:10231C0000AF78600023FB737B6893F82130022BAD
:10232C0005D07B6804229A630123FB7351E07B6820
:10233C001B681A687B681B6822F00E021A607B68A7
:10234C001B681A687B681B6822F001021A607B68A4
:10235C001B68224A934229D07B681B68204A93420F
:10236C0022D07B681B681F4A93421AD07B681B687B
:10237C001D4A934212D07B681B681C4A93420AD0B8
:10238C007B681B681A4A934202D14FF480130EE00B
:10239C004FF080730BE04FF4803308E04FF4805320
:1023AC0005E04FF4807302E0102300E00123114A92
:1023BC0053607B68012283F821207B68002283F81C
:1023CC0020207B685B6B002B03D07B685B6B786891
:1023DC009847FB7B18461037BD4680BD080002406D
:1023EC001C000240300002404400024058000240F1
:1023FC006C0002400000024080B48BB000AF7860EB
:10240C00396000237B6200233B6269E101227B6A15
:10241C0002FA03F3FB613B681B68FA691340BB616A
:10242C00BA69FB699A4240F058813B685B689A4AEA
:10243C0093425ED0984A934275D8984A934258D0AA
:10244C00964A93426FD8964A934252D0944A9342FA
:10245C0069D8944A93424CD0924A934263D8924A98
:10246C00934246D0904A93425DD8122B2AD8122B15
:10247C0059D801A252F823F0FF240008D9240008EF
:10248C00EB2400082D25000833250008332500080F
:10249C0033250008332500083325000833250008B0
:1024AC0033250008332500083325000833250008A0
:1024BC00332500083325000833250008E1240008E3
:1024CC00F5240008794A934213D02CE03B68DB6872
:1024DC003B6229E03B68DB6804333B6224E03B68E9
:1024EC00DB6808333B621FE03B68DB680C333B6204
:1024FC001AE03B689B68002B02D104233B6213E07B
:10250C003B689B68012B05D108233B627B68FA6909
:10251C001A6109E008233B627B68FA695A6103E09F
:10252C0000233B6200E000BFBB69FF2B01D87B6836
:10253C0001E07B6804337B61BB69FF2B02D87B6AAB
:10254C009B0002E07B6A083B9B003B617B691A683D
:10255C000F213B6901FA03F3DB431A40396A3B69EB
:10256C0001FA03F31A437B691A603B685B6803F05A
:10257C008053002B00F0B1804D4B9B694C4A43F0CB
:10258C00010393614A4B9B6903F00103BB60BB6879
:10259C00484A7B6A9B08023352F82330FB607B6A03
:1025AC0003F003039B000F2202FA03F3DB43FA68E8
:1025BC001340FB607B68404A934213D07B683F4AD0
:1025CC0093420DD07B683E4A934207D07B683D4ACC
:1025DC00934201D1032306E0042304E0022302E02A
:1025EC00012300E000237A6A02F003029200934078
:1025FC00FA681343FB602F497B6A9B080233FA6825
:10260C0041F823203B685B6803F48033002B06D031
:10261C002D4B1A682C49BB6913430B6006E02A4BFF
:10262C001A68BB69DB43284913400B603B685B6845
:10263C0003F40033002B06D0234B5A682249BB69A4
:10264C0013434B6006E0204B5A68BB69DB431E49C1
:10265C0013404B603B685B6803F48013002B06D07F
:10266C00194B9A681849BB6913438B6006E0164BEB
:10267C009A68BB69DB43144913408B603B685B6809
:10268C0003F40013002B21D00F4BDA680E49BB6901
:10269C001343CB6021E000BF00003210000031106A
:1026AC000000221000002110000012100000111078
:1026BC00001002400000014000080140000C0140E5
:1026CC000010014000140140000401400B4BDA687B
:1026DC00BB69DB4309491340CB607B6A01337B62E6
:1026EC003B681A687B6A22FA03F3002B7FF48EAEE8
:1026FC0000BF00BF2C37BD4680BC704700040140B2
:10270C0080B485B000AF78600B467B807B689A689C
:10271C007B881340002B02D00123FB7301E00023C4
:10272C00FB73FB7B18461437BD4680BC704780B4E6
:10273C0083B000AF78600B467B8013467B707B7850
:10274C00002B03D07A887B681A6103E07B881A041B
:10275C007B681A6100BF0C37BD4680BC704780B4E3
:10276C0085B000AF78600B467B807B68DB68FB60D4
:10277C007A88FB6813401A04FB68D9437B880B40AA
:10278C001A437B681A6100BF1437BD4680BC704782
:10279C0080B582B000AF0346FB80084B5A69FB88BA
:1027AC001340002B06D0054AFB885361FB88184662
:1027BC0000F006F800BF0837BD4680BD000401409C
:1027CC0080B483B000AF0346FB8000BF0C37BD461E
:1027DC0080BC704780B586B000AF78607B68002BFA
:1027EC0001D1012372E27B681B6803F00103002B0B
:1027FC0000F08780924B5B6803F00C03042B0CD029
:10280C008F4B5B6803F00C03082B12D18C4B5B686D
:10281C0003F48033B3F5803F0BD1894B1B6803F471
:10282C000033002B6CD07B685B68002B68D10123D4
:10283C004CE27B685B68B3F5803F06D1804B1B682C
:10284C007F4A43F4803313602EE07B685B68002B77
:10285C000CD17B4B1B687A4A23F480331360784B82
:10286C001B68774A23F4802313601DE07B685B6848
:10287C00B3F5A02F0CD1724B1B68714A43F4802323
:10288C0013606F4B1B686E4A43F4803313600BE08C
:10289C006B4B1B686A4A23F480331360684B1B68CC
:1028AC00674A23F4802313607B685B68002B13D08A
:1028BC00FEF7BEFF386108E0FEF7BAFF02463B693F
:1028CC00D31A642B01D9032300E25D4B1B6803F47C
:1028DC000033002BF0D014E0FEF7AAFF386108E0BB
:1028EC00FEF7A6FF02463B69D31A642B01D90323DA
:1028FC00ECE1534B1B6803F40033002BF0D100E0E8
:10290C0000BF7B681B6803F00203002B63D04C4BA9
:10291C005B6803F00C03002B0BD0494B5B6803F096
:10292C000C03082B1CD1464B5B6803F48033002B43
:10293C0016D1434B1B6803F00203002B05D07B68B8
:10294C001B69012B01D00123C0E13D4B1B6823F017
:10295C00F8027B685B69DB00394913430B603AE092
:10296C007B681B69002B20D0364B01221A60FEF7C6
:10297C005FFF386108E0FEF75BFF02463B69D31A44
:10298C00022B01D90323A1E12D4B1B6803F0020399
:10299C00002BF0D02A4B1B6823F0F8027B685B6994
:1029AC00DB00274913430B6015E0264B00221A600D
:1029BC00FEF73EFF386108E0FEF73AFF02463B693E
:1029CC00D31A022B01D9032380E11D4B1B6803F0A2
:1029DC000203002BF0D17B681B6803F00803002B6B
:1029EC003AD07B689B69002B19D0174B01221A60D7
:1029FC00FEF71EFF386108E0FEF71AFF02463B693E
:102A0C00D31A022B01D9032360E10D4B5B6A03F04F
:102A1C000203002BF0D0012000F0D8FA1CE00A4B86
:102A2C0000221A60FEF704FF38610FE0FEF700FF8A
:102A3C0002463B69D31A022B08D9032346E100BF97
:102A4C00001002400000424280044242924B5B6AFA
:102A5C0003F00203002BE9D17B681B6803F004032D
:102A6C00002B00F0A6800023FB758B4BDB6903F079
:102A7C008053002B0DD1884BDB69874A43F0805380
:102A8C00D361854BDB6903F08053BB60BB680123CA
:102A9C00FB75824B1B6803F48073002B18D17F4BA2
:102AAC001B687E4A43F480731360FEF7C1FE3861E5
:102ABC0008E0FEF7BDFE02463B69D31A642B01D930
:102ACC00032303E1754B1B6803F48073002BF0D0D8
:102ADC007B68DB68012B06D16F4B1B6A6E4A43F097
:102AEC00010313622DE07B68DB68002B0CD16A4B71
:102AFC001B6A694A23F001031362674B1B6A664A1F
:102B0C0023F0040313621CE07B68DB68052B0CD1FB
:102B1C00614B1B6A604A43F0040313625E4B1B6AF1
:102B2C005D4A43F0010313620BE05B4B1B6A5A4A8C
:102B3C0023F001031362584B1B6A574A23F004031A
:102B4C0013627B68DB68002B15D0FEF771FE3861D1
:102B5C000AE0FEF76DFE02463B69D31A41F2883259
:102B6C00934201D90323B1E04B4B1B6A03F00203E0
:102B7C00002BEED014E0FEF75BFE38610AE0FEF7A6
:102B8C0057FE02463B69D31A41F28832934201D96F
:102B9C0003239BE0404B1B6A03F00203002BEED196
:102BAC00FB7D012B05D13C4BDB693B4A23F0805369
:102BBC00D3617B68DB69002B00F08780364B5B6848
:102BCC0003F00C03082B61D07B68DB69022B46D128
:102BDC00334B00221A60FEF72BFE386108E0FEF73B
:102BEC0027FE02463B69D31A022B01D903236DE061
:102BFC00294B1B6803F00073002BF0D17B681B6A18
:102C0C00B3F5803F08D1244B5B6823F400327B681A
:102C1C009B68214913434B601F4B5B6823F4741270
:102C2C007B68196A7B685B6A0B431B4913434B60D7
:102C3C001B4B01221A60FEF7FBFD386108E0FEF722
:102C4C00F7FD02463B69D31A022B01D903233DE061
:102C5C00114B1B6803F00073002BF0D035E0104BC8
:102C6C0000221A60FEF7E4FD386108E0FEF7E0FD93
:102C7C0002463B69D31A022B01D9032326E0064BEB
:102C8C001B6803F00073002BF0D11EE07B68DB693E
:102C9C00012B07D1012319E0001002400070004005
:102CAC00600042420B4B5B68FB60FB6803F48032B4
:102CBC007B681B6A9A4206D1FB6803F470127B682E
:102CCC005B6A9A4201D0012300E0002318461837B2
:102CDC00BD4680BD0010024080B584B000AF786066
:102CEC0039607B68002B01D10123D0E06A4B1B6853
:102CFC0003F007033A689A4210D9674B1B6823F01C
:102D0C00070265493B6813430B60634B1B6803F078
:102D1C0007033A689A4201D00123B8E07B681B682C
:102D2C0003F00203002B20D07B681B6803F0040324
:102D3C00002B05D0594B5B68584A43F4E063536051
:102D4C007B681B6803F00803002B05D0534B5B68B2
:102D5C00524A43F460535360504B5B6823F0F002CB
:102D6C007B689B684D4913434B607B681B6803F081
:102D7C000103002B40D07B685B68012B07D1474BCC
:102D8C001B6803F40033002B15D101237FE07B6813
:102D9C005B68022B07D1414B1B6803F00073002BBF
:102DAC0009D1012373E03D4B1B6803F00203002B98
:102DBC0001D101236BE0394B5B6823F003027B6884
:102DCC005B68364913434B60FEF732FDF8600AE04E
:102DDC00FEF72EFD0246FB68D31A41F2883293426D
:102DEC0001D9032353E02D4B5B6803F00C027B6885
:102DFC005B689B009A42EBD1274B1B6803F00703DF
:102E0C003A689A4210D2244B1B6823F007022249DD
:102E1C003B6813430B60204B1B6803F007033A68B5
:102E2C009A4201D0012332E07B681B6803F0040353
:102E3C00002B08D0194B5B6823F4E0627B68DB68DD
:102E4C00164913434B607B681B6803F00803002B87
:102E5C0009D0124B5B6823F460527B681B69DB0062
:102E6C000E4913434B6000F021F802460B4B5B6894
:102E7C001B0903F00F030A49CB5C22FA03F3094A3E
:102E8C001360094B1B681846FEF790FC002318468C
:102E9C001037BD4680BD00BF00200240001002402C
:102EAC0044550008680000206C00002090B48AB0E3
:102EBC0000AF294B3C1D0FCB84E80F0040F20123DF
:102ECC003B800023FB610023BB6100237B6200235A
:102EDC007B6100233B62214B5B68FB61FB6903F068
:102EEC000C03042B02D0082B03D02BE01C4B3B62B1
:102EFC002BE0FB699B0C03F00F0328333B4413F8C6
:102F0C00243C7B61FB6903F48033002B12D0134B00
:102F1C005B685B0C03F0010328333B4413F8283C3B
:102F2C00BB617B690E4A03FB02F2BB69B2FBF3F394
:102F3C007B6204E07B690B4A02FB03F37B627B6AD6
:102F4C003B6202E0064B3B6200BF3B6A18462837E7
:102F5C00BD4690BC704700BF6C5300080010024087
:102F6C0000127A0000093D0080B400AF024B1B68D0
:102F7C001846BD4680BC70476800002080B500AF85
:102F8C00FFF7F2FF0246054B5B681B0A03F00703D1
:102F9C000349CB5C22FA03F3184680BD00100240B3
:102FAC005455000880B500AFFFF7DEFF0246054B15
:102FBC005B68DB0A03F007030349CB5C22FA03F3DB
:102FCC00184680BD001002405455000880B485B0EE
:102FDC0000AF78600A4B1B680A4AA2FB03235B0A0A
:102FEC007A6802FB03F3FB6000BFFB685A1EFA60B1
:102FFC00002BF9D100BF00BF1437BD4680BC704711
:10300C0068000020D34D621080B586B000AF7860A8
:10301C0000233B610023FB607B681B6803F001030A
:10302C00002B7DD00023FB754F4BDB6903F08053E5
:10303C00002B0DD14C4BDB694B4A43F08053D361D1
:10304C00494BDB6903F08053BB60BB680123FB7504
:10305C00464B1B6803F48073002B18D1434B1B6841
:10306C00424A43F480731360FEF7E2FB386108E0D8
:10307C00FEF7DEFB02463B69D31A642B01D903230E
:10308C006DE03A4B1B6803F48073002BF0D0364B89
:10309C001B6A03F44073FB60FB68002B2ED07B682B
:1030AC005B6803F44073FA689A4227D02E4B1B6A74
:1030BC0023F44073FB602E4B01221A602C4B002230
:1030CC001A60294AFB681362FB6803F00103002BAA
:1030DC0014D0FEF7ADFB38610AE0FEF7A9FB0246FF
:1030EC003B69D31A41F28832934201D9032336E06B
:1030FC001D4B1B6A03F00203002BEED01A4B1B6A0C
:10310C0023F440727B685B68174913430B62FB7DA9
:10311C00012B05D1144BDB69134A23F08053D36187
:10312C007B681B6803F00203002B08D00E4B5B6816
:10313C0023F440427B689B680B4913434B607B68CC
:10314C001B6803F01003002B08D0074B5B6823F4BB
:10315C0080027B68DB68044913434B6000231846EC
:10316C001837BD4680BD00BF001002400070004003
:10317C004004424280B582B000AF78607B68002B7F
:10318C0001D1012341E07B6893F83D30DBB2002B89
:10319C0006D17B68002283F83C207868FEF77EF924
:1031AC007B68022283F83D207B681A687B680433B5
:1031BC001946104600F028FC7B68012283F8462053
:1031CC007B68012283F83E207B68012283F83F2034
:1031DC007B68012283F840207B68012283F8412020
:1031EC007B68012283F842207B68012283F843200C
:1031FC007B68012283F844207B68012283F84520F8
:10320C007B68012283F83D20002318460837BD4611
:10321C0080BD000080B485B000AF78607B6893F807
:10322C003D30DBB2012B01D001233AE07B68022256
:10323C0083F83D207B681B68DA687B681B6842F06A
:10324C000102DA607B681B68184A93420ED07B68D7
:10325C001B68B3F1804F09D07B681B68144A9342FA
:10326C0004D07B681B68134A934211D17B681B689E
:10327C009B6803F00703FB60FB68062B10D07B6890
:10328C001B681A687B681B6842F001021A6007E031
:10329C007B681B681A687B681B6842F001021A6025
:1032AC00002318461437BD4680BC7047002C0140E3
:1032BC00000400400008004080B582B000AF786088
:1032CC007B68002B01D1012341E07B6893F83D30F2
:1032DC00DBB2002B06D17B68002283F83C20786897
:1032EC0000F039F87B68022283F83D207B681A686D
:1032FC007B6804331946104600F086FB7B6801227C
:10330C0083F846207B68012283F83E207B680122EB
:10331C0083F83F207B68012283F840207B680122E0
:10332C0083F841207B68012283F842207B680122CC
:10333C0083F843207B68012283F844207B680122B8
:10334C0083F845207B68012283F83D200023184632
:10335C000837BD4680BD80B483B000AF786000BF35
:10336C000C37BD4680BC704780B584B000AF786028
:10337C0039603B68002B09D17B6893F83E30DBB297
:10338C00012B14BF01230023DBB222E03B68042B8A
:10339C0009D17B6893F83F30DBB2012B14BF0123BA
:1033AC000023DBB215E03B68082B09D17B6893F84E
:1033BC004030DBB2012B14BF01230023DBB208E049
:1033CC007B6893F84130DBB2012B14BF012300233F
:1033DC00DBB2002B01D001235EE03B68002B04D153
:1033EC007B68022283F83E2013E03B68042B04D157
:1033FC007B68022283F83F200BE03B68082B04D14A
:10340C007B68022283F8402003E07B68022283F869
:10341C0041207B681B6801223968184600F074FD56
:10342C007B681B681E4A934207D17B681B685A6CE9
:10343C007B681B6842F400425A647B681B68184A1C
:10344C0093420ED07B681B68B3F1804F09D07B6828
:10345C001B68144A934204D07B681B68124A93423F
:10346C0011D17B681B689B6803F00703FB60FB684A
:10347C00062B10D07B681B681A687B681B6842F0AF
:10348C0001021A6007E07B681B681A687B681B687E
:10349C0042F001021A60002318461037BD4680BD69
:1034AC00002C0140000400400008004080B582B0B0
:1034BC0000AF78607B681B681B6903F00203022B6A
:1034CC0022D17B681B68DB6803F00203022B1BD143
:1034DC007B681B686FF002021A617B6801221A7705
:1034EC007B681B689B6903F00303002B03D078688F
:1034FC0000F06FFA05E0786800F062FA786800F086
:10350C0071FA7B6800221A777B681B681B6903F0D1
:10351C000403042B22D17B681B68DB6803F00403D3
:10352C00042B1BD17B681B686FF004021A617B684B
:10353C0002221A777B681B689B6903F44073002B8B
:10354C0003D0786800F045FA05E0786800F038FAA6
:10355C00786800F047FA7B6800221A777B681B6852
:10356C001B6903F00803082B22D17B681B68DB68FE
:10357C0003F00803082B1BD17B681B686FF0080253
:10358C001A617B6804221A777B681B68DB6903F07D
:10359C000303002B03D0786800F01BFA05E0786871
:1035AC0000F00EFA786800F01DFA7B6800221A779A
:1035BC007B681B681B6903F01003102B22D17B68FE
:1035CC001B68DB6803F01003102B1BD17B681B6896
:1035DC006FF010021A617B6808221A777B681B68EF
:1035EC00DB6903F44073002B03D0786800F0F1F929
:1035FC0005E0786800F0E4F9786800F0F3F97B688E
:10360C0000221A777B681B681B6903F00103012BEE
:10361C000ED17B681B68DB6803F00103012B07D11B
:10362C007B681B686FF001021A617868FDF768FD12
:10363C007B681B681B6903F08003802B0ED17B68B1
:10364C001B68DB6803F08003802B07D17B681B6849
:10365C006FF080021A61786800F0E1FC7B681B68EF
:10366C001B6903F04003402B0ED17B681B68DB68A1
:10367C0003F04003402B07D17B681B686FF04002BE
:10368C001A61786800F0B7F97B681B681B6903F056
:10369C002003202B0ED17B681B68DB6803F0200312
:1036AC00202B07D17B681B686FF020021A617868A9
:1036BC0000F0ACFC00BF0837BD4680BD80B584B0BF
:1036CC0000AFF860B9607A60FB6893F83C30012B6E
:1036DC0001D10223ACE0FB68012283F83C207B681B
:1036EC000C2B00F29F8001A252F823F02D3700081A
:1036FC003138000831380008313800086D370008BF
:10370C00313800083138000831380008AF3700086C
:10371C00313800083138000831380008EF3700081C
:10372C00FB681B68B968184600F0D0F9FB681B6889
:10373C009A69FB681B6842F008029A61FB681B6877
:10374C009A69FB681B6822F004029A61FB681B688B
:10375C009969BB681A69FB681B680A439A6162E045
:10376C00FB681B68B968184600F016FAFB681B6802
:10377C009A69FB681B6842F400629A61FB681B68DB
:10378C009A69FB681B6822F480629A61FB681B686B
:10379C009969BB681B691A02FB681B680A439A612A
:1037AC0041E0FB681B68B968184600F05FFAFB68DB
:1037BC001B68DA69FB681B6842F00802DA61FB6877
:1037CC001B68DA69FB681B6822F00402DA61FB688B
:1037DC001B68D969BB681A69FB681B680A43DA6104
:1037EC0021E0FB681B68B968184600F0A9FAFB6871
:1037FC001B68DA69FB681B6842F40062DA61FB68DB
:10380C001B68DA69FB681B6822F48062DA61FB686A
:10381C001B68D969BB681B691A02FB681B680A43E1
:10382C00DA6100E000BFFB68002283F83C20002333
:10383C0018461037BD4680BD80B584B000AF7860A7
:10384C0039607B6893F83C30012B01D10223B3E043
:10385C007B68012283F83C207B68022283F83D20A0
:10386C007B681B689B68FB60FB6823F07703FB603D
:10387C00FB6823F47F43FB607B681B68FA689A60E3
:10388C003B681B68B3F5005F3ED0B3F5005F00F2F8
:10389C008780B3F5805F00F08580B3F5805F7FD8BB
:1038AC00702B1AD0702B7BD8602B50D0602B77D814
:1038BC00502B3CD0502B73D8402B58D0402B6FD86A
:1038CC00302B64D0302B6BD8202B60D0202B67D8BA
:1038DC00002B5CD0102B5AD062E07B6818683B68D8
:1038EC0099683B685A683B68DB6800F0EEFA7B68C5
:1038FC001B689B68FB60FB6843F07703FB607B688D
:10390C001B68FA689A604EE07B6818683B68996897
:10391C003B685A683B68DB6800F0D7FA7B681B6829
:10392C009A687B681B6842F480429A603BE07B6833
:10393C0018683B6859683B68DB681A4600F04EFA19
:10394C007B681B685021184600F0A5FA2BE07B68B9
:10395C0018683B6859683B68DB681A4600F06CFADB
:10396C007B681B686021184600F095FA1BE07B68A9
:10397C0018683B6859683B68DB681A4600F02EFAF9
:10398C007B681B684021184600F085FA0BE07B68C9
:10399C001A683B681B681946104600F07CFA02E076
:1039AC0000BF00E000BF7B68012283F83D207B68EC
:1039BC00002283F83C20002318461037BD4680BDFA
:1039CC0080B483B000AF786000BF0C37BD4680BCBC
:1039DC00704780B483B000AF786000BF0C37BD4631
:1039EC0080BC704780B483B000AF786000BF0C37E8
:1039FC00BD4680BC704780B483B000AF786000BF18
:103A0C000C37BD4680BC704780B485B000AF786081
:103A1C0039607B681B68FB607B68294A93420BD03A
:103A2C007B68B3F1804F07D07B68264A934203D062
:103A3C007B68254A934208D1FB6823F07003FB6036
:103A4C003B685B68FA681343FB607B681C4A9342D3
:103A5C000BD07B68B3F1804F07D07B68194A934237
:103A6C0003D07B68184A934208D1FB6823F4407357
:103A7C00FB603B68DB68FA681343FB60FB6823F070
:103A8C0080023B685B691343FB607B68FA681A60D1
:103A9C003B689A687B68DA623B681A687B689A6252
:103AAC007B68074A934203D13B681A697B681A63A7
:103ABC007B6801225A6100BF1437BD4680BC704739
:103ACC00002C0140000400400008004080B487B086
:103ADC0000AF786039607B681B6A23F001027B6859
:103AEC001A627B681B6A7B617B685B683B617B68E5
:103AFC009B69FB60FB6823F07003FB60FB6823F0A1
:103B0C000303FB603B681B68FA681343FB607B692B
:103B1C0023F002037B613B689B687A6913437B61EA
:103B2C007B681C4A93420CD17B6923F008037B61B0
:103B3C003B68DB687A6913437B617B6923F0040380
:103B4C007B617B68134A934211D13B6923F48073E8
:103B5C003B613B6923F400733B613B685B693A69E9
:103B6C0013433B613B689B693A6913433B617B6838
:103B7C003A695A607B68FA689A613B685A687B6854
:103B8C005A637B687A691A6200BF1C37BD4680BCD9
:103B9C00704700BF002C014080B487B000AF786044
:103BAC0039607B681B6A23F010027B681A627B68A1
:103BBC001B6A7B617B685B683B617B689B69FB6014
:103BCC00FB6823F4E043FB60FB6823F44073FB6069
:103BDC003B681B681B02FA681343FB607B6923F08C
:103BEC0020037B613B689B681B017A6913437B61F3
:103BFC007B681D4A93420DD17B6923F080037B6166
:103C0C003B68DB681B017A6913437B617B6923F09A
:103C1C0040037B617B68144A934213D13B6923F4C4
:103C2C0080633B613B6923F400633B613B685B69E8
:103C3C009B003A6913433B613B689B699B003A6963
:103C4C0013433B617B683A695A607B68FA689A61F6
:103C5C003B685A687B689A637B687A691A6200BF12
:103C6C001C37BD4680BC7047002C014080B487B027
:103C7C0000AF786039607B681B6A23F480727B68C4
:103C8C001A627B681B6A7B617B685B683B617B6843
:103C9C00DB69FB60FB6823F07003FB60FB6823F0BF
:103CAC000303FB603B681B68FA681343FB607B698A
:103CBC0023F400737B613B689B681B027A69134396
:103CCC007B617B681D4A93420DD17B6923F40063B1
:103CDC007B613B68DB681B027A6913437B617B6900
:103CEC0023F480637B617B68144A934213D13B6954
:103CFC0023F480533B613B6923F400533B613B68E5
:103D0C005B691B013A6913433B613B689B691B016F
:103D1C003A6913433B617B683A695A607B68FA687D
:103D2C00DA613B685A687B68DA637B687A691A6285
:103D3C0000BF1C37BD4680BC704700BF002C014043
:103D4C0080B487B000AF786039607B681B6A23F45D
:103D5C0080527B681A627B681B6A3B617B685B687C
:103D6C007B617B68DB69FB60FB6823F4E043FB60F1
:103D7C00FB6823F44073FB603B681B681B02FA680A
:103D8C001343FB603B6923F400533B613B689B6826
:103D9C001B033A6913433B617B680F4A934209D179
:103DAC007B6923F480437B613B685B699B017A6987
:103DBC0013437B617B687A695A607B68FA68DA61C5
:103DCC003B685A687B681A647B683A691A6200BF60
:103DDC001C37BD4680BC7047002C014080B487B0B6
:103DEC0000AFF860B9607A60FB681B6A7B61FB68A6
:103DFC001B6A23F00102FB681A62FB689B693B613A
:103E0C003B6923F0F0033B617B681B013A69134368
:103E1C003B617B6923F00A037B617A69BB681343BE
:103E2C007B61FB683A699A61FB687A691A6200BF28
:103E3C001C37BD4680BC704780B487B000AFF860BB
:103E4C00B9607A60FB681B6A23F01002FB681A6287
:103E5C00FB689B697B61FB681B6A3B617B6923F494
:103E6C0070437B617B681B037A6913437B613B69FD
:103E7C0023F0A0033B61BB681B013A6913433B6110
:103E8C00FB687A699A61FB683A691A6200BF1C3751
:103E9C00BD4680BC704780B485B000AF7860396097
:103EAC007B689B68FB60FB6823F07003FB603A68DF
:103EBC00FB68134343F00703FB607B68FA689A6066
:103ECC0000BF1437BD4680BC704780B487B000AFCC
:103EDC00F860B9607A603B60FB689B687B617B69CA
:103EEC0023F47F437B613B681A027B681A43BB68EF
:103EFC0013437A6913437B61FB687A699A6000BF4C
:103F0C001C37BD4680BC704780B487B000AFF860EA
:103F1C00B9607A60BB6803F01F03012202FA03F355
:103F2C007B61FB681A6A7B69DB431A40FB681A6287
:103F3C00FB681A6ABB6803F01F03796801FA03F384
:103F4C001A43FB681A6200BF1C37BD4680BC704721
:103F5C0080B485B000AF786039607B6893F83C30F2
:103F6C00012B01D1022346E07B68012283F83C201F
:103F7C007B68022283F83D207B681B685B68FB60D2
:103F8C007B681B689B68BB60FB6823F07003FB605D
:103F9C003B681B68FA681343FB607B681B68FA6814
:103FAC005A607B681B68164A93420ED07B681B686C
:103FBC00B3F1804F09D07B681B68124A934204D03E
:103FCC007B681B68104A93420CD1BB6823F08003BA
:103FDC00BB603B685B68BA681343BB607B681B685B
:103FEC00BA689A607B68012283F83D207B680022C6
:103FFC0083F83C20002318461437BD4680BC70471C
:10400C00002C0140000400400008004080B483B044
:10401C0000AF786000BF0C37BD4680BC704780B4E1
:10402C0083B000AF786000BF0C37BD4680BC7047D2
:10403C0080B582B000AF78607B68002B01D1012382
:10404C003FE07B6893F83D30DBB2002B06D17B68F8
:10405C00002283F83C207868FDF792FA7B682422D2
:10406C0083F83D207B681B68DA687B681B6822F448
:10407C000052DA60786800F025FC7B681B681A69CE
:10408C007B681B6822F490421A617B681B685A6932
:10409C007B681B6822F02A025A617B681B68DA680D
:1040AC007B681B6842F40052DA607B6800221A6459
:1040BC007B68202283F83D207B68202283F83E20F9
:1040CC00002318460837BD4680BD80B58AB002AFC4
:1040DC00F860B9603B601346FB8000237B61FB6892
:1040EC0093F83D30DBB2202B7CD1BB68002B02D087
:1040FC00FB88002B01D1012375E0FB6893F83C3061
:10410C00012B01D102236EE0FB68012283F83C20D5
:10411C00FB6800221A64FB68212283F83D20FDF71E
:10412C0087FB7861FB68FA889A84FB68FA88DA84E2
:10413C00FB689B68B3F5805F08D1FB681B69002B9B
:10414C0004D10023FB61BB68BB6103E0BB68FB616E
:10415C000023BB61FB68002283F83C202AE03B680B
:10416C0000937B6900228021F86800F011FA034665
:10417C00002B01D0032336E0FB69002B0BD1BB696C
:10418C001B881A46FB681B68C2F308025A60BB699D
:10419C000233BB6107E0FB691A78FB681B685A6045
:1041AC00FB690133FB61FB68DB8C9BB2013B9AB270
:1041BC00FB68DA84FB68DB8C9BB2002BCFD13B68AD
:1041CC0000937B6900224021F86800F0E1F9034676
:1041DC00002B01D0032306E0FB68202283F83D204E
:1041EC00002300E0022318462037BD4680BD0000A6
:1041FC0080B58AB000AF78607B681B681B687B62F7
:10420C007B681B68DB683B627B681B685B69FB61D6
:10421C000023BB6100237B617B6A03F00F03BB614E
:10422C00BB69002B0DD17B6A03F02003002B08D057
:10423C003B6A03F02003002B03D0786800F099FA56
:10424C007BE1BB69002B00F0B180FB6903F001033B
:10425C00002B05D13B6A03F49073002B00F0A68071
:10426C007B6A03F00103002B0AD03B6A03F48073D2
:10427C00002B05D07B681B6C43F001027B681A6431
:10428C007B6A03F00403002B0AD0FB6903F00103E3
:10429C00002B05D07B681B6C43F002027B681A6410
:1042AC007B6A03F00203002B0AD0FB6903F00103C5
:1042BC00002B05D07B681B6C43F004027B681A64EE
:1042CC007B6A03F00803002B0FD03B6A03F020033A
:1042DC00002B04D1FB6903F00103002B05D07B6894
:1042EC001B6C43F008027B681A647B681B6C002B08
:1042FC0000F01E817B6A03F02003002B07D03B6A81
:10430C0003F02003002B02D0786800F032FA7B68AF
:10431C001B685B6903F04003002B14BF01230023CF
:10432C00DBB27B617B681B6C03F00803002B02D1B2
:10433C007B69002B31D0786800F074F97B681B68BE
:10434C005B6903F04003002B23D07B681B685A6920
:10435C007B681B6822F040025A617B689B6B002BC8
:10436C0013D07B689B6B764A5A637B689B6B1846B1
:10437C00FDF7CCFF0346002B16D07B689B6B5B6B69
:10438C007A68926B104698470EE0786800F0ECF86B
:10439C000AE0786800F0E8F806E0786800F0E4F8E5
:1043AC007B6800221A64C3E000BFC1E07B681B6B12
:1043BC00012B40F0A1807B6A03F01003002B00F06E
:1043CC009B803B6A03F01003002B00F095800023C8
:1043DC00FB607B681B681B68FB607B681B685B6809
:1043EC00FB60FB687B681B685B6903F04003002B78
:1043FC004ED07B689B6B1B685B683B823B8A002BB7
:10440C0000F098807B689B8D3A8A9A4280F092806B
:10441C007B683A8ADA857B689B6B9B69202B2BD057
:10442C007B681B68DA687B681B6822F48072DA6030
:10443C007B681B685A697B681B6822F001025A6111
:10444C007B681B685A697B681B6822F040025A61C2
:10445C007B68202283F83E207B6800221A637B68ED
:10446C001B68DA687B681B6822F01002DA607B68D4
:10447C009B6B1846FDF70FFF7B689A8D7B68DB8D75
:10448C009BB2D31A9BB21946786800F076F851E0CB
:10449C007B689A8D7B68DB8D9BB2D31A7B827B68A1
:1044AC00DB8D9BB2002B47D07B8A002B44D07B68E2
:1044BC001B68DA687B681B6822F49072DA607B6890
:1044CC001B685A697B681B6822F001025A617B6881
:1044DC00202283F83E207B6800221A637B681B68CD
:1044EC00DA687B681B6822F01002DA607B8A194656
:1044FC00786800F042F81FE07B6A03F08003002B21
:10450C0008D03B6A03F08003002B03D0786800F0DE
:10451C00C9F812E07B6A03F04003002B0DD03B6A14
:10452C0003F04003002B08D0786800F00AF904E08F
:10453C0000BF02E000BF00E000BF2837BD4680BDD1
:10454C008946000880B483B000AF786000BF0C3798
:10455C00BD4680BC704780B483B000AF786000BFAC
:10456C000C37BD4680BC704780B483B000AF786018
:10457C0000BF0C37BD4680BC704780B483B000AF21
:10458C0078600B467B8000BF0C37BD4680BC704703
:10459C0080B584B000AFF860B9603B601346FB7126
:1045AC002CE0BB69B3F1FF3F28D0BB69002B07D0CF
:1045BC00FDF73EF902463B68D31ABA699A421DD2FE
:1045CC00FB681B68DA68FB681B6822F4D072DA603F
:1045DC00FB681B685A69FB681B6822F001025A6170
:1045EC00FB68202283F83D20FB68202283F83E20C4
:1045FC00FB68002283F83C2003230FE0FB681B6858
:10460C001A68BB681340BA689A420CBF0123002396
:10461C00DBB21A46FB799A42C3D0002318461037F6
:10462C00BD4680BD80B483B000AF78607B681B68EA
:10463C00DA687B681B6822F49072DA607B681B680E
:10464C005A697B681B6822F001025A617B681B6BFC
:10465C00012B07D17B681B68DA687B681B6822F02A
:10466C001002DA607B68202283F83E207B680022EF
:10467C001A6300BF0C37BD4680BC704780B584B050
:10468C0000AF78607B685B6AFB60FB680022DA85B0
:10469C00FB680022DA84F868FFF766FF00BF10376A
:1046AC00BD4680BD80B485B000AF78607B6893F860
:1046BC003D30DBB2212B3ED17B689B68B3F5805F2C
:1046CC0014D17B681B69002B10D17B681B6AFB60C3
:1046DC00FB681B881A467B681B68C2F308025A6089
:1046EC007B681B6A9A1C7B681A6208E07B681B6AF1
:1046FC00591C7A6811621A787B681B685A607B684F
:10470C00DB8C9BB2013B9BB27A681946D184002B9F
:10471C000FD17B681B68DA687B681B6822F080020B
:10472C00DA607B681B68DA687B681B6842F04002C1
:10473C00DA60002300E0022318461437BD4680BC23
:10474C00704780B582B000AF78607B681B68DA6810
:10475C007B681B6822F04002DA607B68202283F8B9
:10476C003D207868FFF7EEFE002318460837BD465B
:10477C0080BD80B586B000AF78607B6893F83E3022
:10478C00DBB2222B40F099807B689B68B3F5805F8D
:10479C0017D17B681B69002B13D100237B617B68CD
:1047AC009B6A3B617B681B685B689BB2C3F3080325
:1047BC009AB23B691A807B689B6A9A1C7B689A62E6
:1047CC0026E07B689B6A7B6100233B617B689B686E
:1047DC00B3F5805F07D07B689B68002B0AD17B68A0
:1047EC001B69002B06D17B681B685B68DAB27B699E
:1047FC001A7008E07B681B685B68DBB203F07F0310
:10480C00DAB27B691A707B689B6A5A1C7B689A6265
:10481C007B68DB8D9BB2013B9BB27A681946D185D4
:10482C00002B48D17B681B68DA687B681B6822F018
:10483C002002DA607B681B68DA687B681B6822F4EC
:10484C008072DA607B681B685A697B681B6822F08F
:10485C0001025A617B68202283F83E207B681B6B27
:10486C00012B23D17B6800221A637B681B68DA68F2
:10487C007B681B6822F01002DA607B681B681B687F
:10488C0003F01003102B0AD10023FB607B681B681C
:10489C001B68FB607B681B685B68FB60FB687B6864
:1048AC009B8D19467868FFF768FE02E07868FFF781
:1048BC0052FE002302E0002300E0022318461837C2
:1048CC00BD4680BD80B584B000AF78607B681B6846
:1048DC001B6923F440517B68DA687B681B680A43C8
:1048EC001A617B689A687B681B691A437B685B69F1
:1048FC001343BB607B681B68DB6823F4B05323F065
:10490C000C037A681268B9680B43D3607B681B6828
:10491C005B6923F440717B689A697B681B680A4366
:10492C005A617B681B682C4A934203D1FEF73AFB11
:10493C00F86002E0FEF722FBF860FA6813469B0071
:10494C0013449A001A447B685B689B00B2FBF3F338
:10495C00224AA2FB03235B091901FA6813469B0048
:10496C0013449A001A447B685B689B00B2FBF3F219
:10497C001A4BA3FB02035B09642000FB03F3D31A5D
:10498C001B013233154AA2FB03235B0903F0F0032E
:10499C001944FA6813469B0013449A001A447B6826
:1049AC005B689B00B2FBF3F20C4BA3FB02035B09AD
:1049BC00642000FB03F3D31A1B013233074AA2FB1A
:1049CC0003235B0903F00F027B681B680A449A609F
:1049DC0000BF1037BD4680BD003801401F85EB512C
:1049EC00014B1868704700BF7400002070B500269A
:1049FC000C4D0D4C641BA410A64209D100F09CFC7C
:104A0C0000260A4D0A4C641BA410A64205D170BDA9
:104A1C0055F8043B98470136EEE755F8043B9847A8
:104A2C000136F2E7905500089055000890550008A3
:104A3C00945500080A44914200F1FF3300D17047AD
:104A4C0010B511F8014B914203F8014FF9D110BD8B
:104A5C0003460244934200D1704703F8011BF9E767
:104A6C000EB46FF0004100B59CB01DAB02900690E7
:104A7C00079104910848094953F8042B05910068E3
:104A8C0002A9019300F068F80022029B1A701CB076
:104A9C005DF804EB03B07047740000200802FFFFC0
:104AAC002DE9F0478E6882469E420C4690461F4682
:104ABC0038D88A8912F4906F32D02568096901338D
:104ACC00A5EB010965694B4405EB450505EBD5756F
:104ADC006D109D4238BF1D46530531D5294600F057
:104AEC0061FB064650B90C234FF0FF30CAF800307A
:104AFC00A38943F04003A381BDE8F0874A462169AE
:104B0C00FFF798FFA38923F4906343F08003A381FC
:104B1C0026614E4426603E466561A5EB0905A560FD
:104B2C00BE4200D93E4632464146206800F0B8FAF3
:104B3C00A36800209B1BA360236833442360DBE73E
:104B4C002A4600F0A3FB06460028E1D15046216915
:104B5C0000F0C0FAC7E700002DE9F04F98468B89AA
:104B6C0007461B060D4614469DB00ED50B6963B95E
:104B7C00402100F017FB2860286120B90C233B6012
:104B8C004FF0FF30D1E040236B61002309932023C9
:104B9C008DF8293030234FF00109CDF80C80DFF867
:104BAC00A4818DF82A3023469A4613F8012B0AB1BA
:104BBC00252AF9D1BAEB040B0BD05B4622462946C9
:104BCC003846FFF76DFF013000F0AA80099A5A446D
:104BDC0009929AF80030002B00F0A28000234FF0CD
:104BEC00FF32CDE905230AF1010A049307938DF8EE
:104BFC0053301A935446052214F8011B514800F007
:104C0C0041FA049AD8B9D00644BF20238DF853300A
:104C1C00110744BF2B238DF853309AF800302A2B00
:104C2C0015D0544600204FF00A0C079A214611F873
:104C3C00013B303B092B4ED9B0B1079214E0A0EBED
:104C4C00080309FA03F31343A2460493D2E7039B28
:104C5C00191D1B680391002BBBBF5B4242F0020283
:104C6C0007930793B8BF049223782E2B0CD163784B
:104C7C002A2B35D1039B02341A1D1B680392002B7F
:104C8C00B8BF4FF0FF330593DFF8BCA003225046AA
:104C9C00217800F0F7F940B14023A0EB0A0003FAA9
:104CAC0000F0049B01340343049314F8011B062207
:104CBC0026488DF8281000F0E5F9002838D0244B50
:104CCC001BBB039B073323F0070308330393099B98
:104CDC003344099367E70C4601200CFB0232A5E72D
:104CEC0000234FF00A0C194601340593204610F8A6
:104CFC00012B303A092A03D9002BC5D00591C3E703
:104D0C00044601230CFB0121F0E703AB00932A4678
:104D1C003846104B04A9AFF30080421C0646D6D18E
:104D2C00AB895B063FF52CAF09981DB0BDE8F08F41
:104D3C0003AB00932A463846064B04A900F07CF8D6
:104D4C00EBE700BF5C55000862550008665500088B
:104D5C0000000000AD4A00082DE9F04716469946C0
:104D6C008A680B6907469342B8BF1346336091F8C3
:104D7C0043200C46DDF820800AB1013333602368F0
:104D8C00990642BF336802333360256815F0060577
:104D9C0006D104F1190AE36832689B1AAB4228DC8D
:104DAC0094F84320131E226818BF012392062DD4B9
:104DBC004946384604F14302C047013020D02368ED
:104DCC00E56803F00603042B18BF002532684FF08A
:104DDC000006A36808BFAD1A226908BF25EAE5756D
:104DEC009342C4BF9B1AED181A34B5421AD1002055
:104DFC0008E00123524649463846C047013003D1EA
:104E0C004FF0FF30BDE8F0870135C4E73020E118E2
:104E1C0081F843005A1C94F845102244023382F85E
:104E2C004310C5E70123224649463846C0470130A6
:104E3C00E6D00136D9E700002DE9FF470F7E9146F9
:104E4C00782F80460C469A460C9D01F1430207D8F8
:104E5C00622F0AD8002F00F0D980582F00F0A480C0
:104E6C0004F1420584F842703AE0A7F16303152B74
:104E7C00F6D801A151F823F0DD4E0008F14E0008E0
:104E8C006D4E00086D4E00086D4E00086D4E00080A
:104E9C00F14E00086D4E00086D4E00086D4E000876
:104EAC006D4E0008FF4F0008214F0008E14F00082D
:104EBC006D4E00086D4E0008215000086D4E000824
:104ECC00214F00086D4E00086D4E0008E94F000898
:104EDC002B681A1D1B682A6004F1420584F84230C5
:104EEC000123A4E020682968060601F104030AD511
:104EFC000E682B60002E03DA2D23764284F84330A3
:104F0C000A235E4819E00E6810F0400F2B6018BFA2
:104F1C0036B2EFE72B682068191D2960010601D510
:104F2C001E6802E04606FBD51E886F2F0CBF0823B7
:104F3C000A235248002184F843106568002DA8BF4D
:104F4C002168A560A4BF21F0040121600EB9002DD9
:104F5C004DD01546B6FBF3F103FB1167C75D05F8A1
:104F6C00017D3746BB420E46F4D9082B0BD1236882
:104F7C00DE0708D5236961689942DEBF302305F846
:104F8C00013C05F1FF35521B22614B462146404640
:104F9C00CDF800A003AAFFF7DFFE01304CD14FF093
:104FAC00FF3004B0BDE8F087344881F845702968BB
:104FBC00236851F8046B29601D0614D5DF0744BF24
:104FCC0043F0200323601EB9236823F020032360E1
:104FDC001023AFE7236843F020032360782328488D
:104FEC0084F84530E3E7590648BFB6B2E6E7154604
:104FFC00BBE72B682668181D6169286035061B689D
:10500C0001D5196002E07006FBD519800023154606
:10501C002361BAE72B6800211A1D2A601D6862689B
:10502C00284600F02FF808B1401B606063682361CC
:10503C00002384F84330A8E72A46494640462369B2
:10504C00D0470130ABD023689B0713D4E068039B97
:10505C009842B8BF1846A4E7012332464946404659
:10506C00D04701309BD00135E36803995B1AAB4202
:10507C00F2DCEBE7002504F11906F5E76D550008A5
:10508C007E550008034610B5C9B202449342184637
:10509C0001D1002003E0047801338C42F6D110BD1D
:1050AC00884210B501EB020402D98442234607D88A
:1050BC00431EA14208D011F8012B03F8012FF8E789
:1050CC00014602448A4200D110BD13F8014D02F88A
:1050DC00014DF7E738B50546002940D051F8043C9E
:1050EC000C1F002BB8BFE41800F010F91C4A136811
:1050FC0033B9636014602846BDE8384000F00CB941
:10510C00A34208D9206821188B4201BF19685B683B
:10511C0009182160EDE71A465B680BB1A342FAD976
:10512C0011685018A0420BD12068014450188342DA
:10513C001160E0D118685B68014411605360DAE7D4
:10514C0002D90C232B60D6E7206821188B4201BFB3
:10515C0019685B680918216063605460CBE738BD3F
:10516C00A802002070B50E4E0C463168054611B9E8
:10517C0000F0BCF830602146284600F0B7F8431C1C
:10518C000AD0C41C24F00304A04207D0211A2846DC
:10519C0000F0ACF8013001D14FF0FF34204670BD67
:1051AC00AC0200202DE9F041CD1C25F0030508359B
:1051BC000C2D38BF0C25002D074601DBA94205D963
:1051CC000C2300263B603046BDE8F0812E4E00F0EB
:1051DC009DF833681C4634BB29463846FFF7C2FF9E
:1051EC00431C04464DD134682646002E40D123681A
:1051FC003146384604EB030800F078F880453AD184
:10520C00216803356D1A25F0030508350C2D38BFC0
:10521C000C2538462946FFF7A5FF01302BD0236813
:10522C002B4423600EE02268521B1ED40B2A16D985
:10523C006119A342256018BF5960636808BF3160CB
:10524C0062514B60384604F10B0600F065F826F00D
:10525C000706231DF21AB6D09B1BA350B3E7626856
:10526C00A3420CBF32605A60ECE723466468B2E795
:10527C0034467668B9E70C2338463B6000F04CF8AE
:10528C00A1E72560DEE700BFA80200202DE9F04170
:10529C00804614460E4621B91146BDE8F041FFF791
:1052AC0081BF2AB9FFF716FF25462846BDE8F081D5
:1052BC0000F038F88442074602D8B4EB500F12D8ED
:1052CC0021464046FFF76EFF05460028EDD0BC4254
:1052DC002246314628BF3A46FFF7ACFB31464046E2
:1052EC00FFF7F8FEE1E73546DFE7000038B50023AD
:1052FC00054D044608462B60FCF7E0F9431C02D12F
:10530C002B6803B1236038BDB0020020014800F0C7
:10531C0011B800BFB4020020014800F00CB800BF67
:10532C00B402002051F8043C181F002BBCBF0B58D2
:10533C00C018704770477047F8B500BFF8BC08BC80
:10534C009E467047F8B500BFF8BC08BC9E46704737
:10535C0021375345473D256423200D0A00000000EA
:10536C0002030405060708090A0B0C0D0E0F10109A
:10537C005504C805000000000000000000000000FB
:10538C000000000000000000000000000000000011
:10539C000000000000000000000000000000000001
:1053AC0000000000000000000000000000000000F1
:1053BC0000000000000000000000000000000000E1
:1053CC0000000000000000000000000000000000D1
:1053DC0000000000050800000000000000000000B4
:1053EC0000000000000000000000000000000000B1
:1053FC0000000000000000000000000000000000A1
:10540C0000000000000002007505C80575050000CD
:10541C000000000000000000000000000000000080
:10542C000000000000000000000000000000000070
:10543C000000000000000000000000000000000060
:10544C000000000000000000000000000000000050
:10545C000000000000000000000000000000000040
:10546C000000000000000000000000000808080018
:10547C000000000000000000000000000000000020
:10548C000000000000000000000000000000000010
:10549C0000000000000000000000000000000300FD
:1054AC007D0600000000000000000000000000006D
:1054BC0000000000000000000000000000000000E0
:1054CC0000000000000000000000000000000000D0
:1054DC0000000000000000000000000000000000C0
:1054EC0000000000000000000000000000000000B0
:1054FC0000000000000000000000000000000000A0
:10550C000000000006000000000000000000000089
:10551C00000000000000000000000000000000007F
:10552C00000000000000000000000000000000006F
:10553C00000000000000010000000000000000005E
:10554C00010203040607080900000000010203041D
:10555C00232D302B2000686C4C0065666745464750
:10556C0000303132333435363738394142434445D3
:10557C004600303132333435363738396162636442
:04558C006566000050
:0455900031010008DD
:045594000D010008FD
:1055980001000000010000000100000001000000FF
:1055A80001000000010000000100000001000000EF
:1055B80001000000010000000100000001000000DF
:1055C80001000000010000000100000001000000CF
:1055D80002000000100000000100000001000000AF
:1055E8000008014000080140000C0140000801408B
:1055F8002C010000FFFFFFFF0024F4001000000052
:1056080001000000780000200000000000000000F9
:105618000000000000000000000000000000000082
:105628000000000000000000000000000000000072
:105638000000000000000000000000000000000062
:105648000000000000000000000000000000000052
:105658000000000000000000000000000000000042
:0856680000000000000000003A
:040000050800174197
:00000001FF
